:020000040000FA
:0600000083018A015F2864
:080008002000911C2F2891102B
:1000100085012B2229222722252221000C160C15CE
:10002000200072100C1D7214F2100C1EF2147217C4
:10003000A30B0B322108A300A50803190632250FD4
:1000400001320132A50321000C122000A40B06325C
:100050002208A400721D023221000C112000200091
:10006000111D5E283814721E3828250093015C2863
:10007000250013185028700891077108923D200040
:100080000A30B81C0930381D0930250093000030B3
:10009000F5007D30F6007008F5027108F63B5C282B
:1000A000003091077D30923D20000A30B81C0830A6
:1000B000381D08302500930020001111090021008F
:1000C0009517951295111514951415157230990000
:1000D00017309700230001308C0020000130980079
:1000E0009913F6214E309C007D309B002100911425
:1000F0002000721622001D14250093012100111505
:10010000200000308C002100DF308C0020006400D3
:100110006430A1000130A2006400062264000B17C5
:100120008B1720000430AE008D21AE207F217F216F
:10013000FD36FC0CFD36FC0CFD36FC0C3230A1000B
:100140007C08A50064002508031DFC33B520AE2003
:100150006430A100FF30A50095210E326430A50067
:100160000130A1002508031DFD336430A8002808D4
:10017000031DFD3364000800640020002E082F04D6
:10018000031D2532721C1332F21C0632B830B00047
:100190000B30B100F2113C325B210230FC07003021
:1001A000FD3DC6215821F2150530AE001032F21C7B
:1001B0000B325B210230FC020030FD3BC62158218E
:1001C000F2150530AE000332F2191522F211721F3A
:1001D0001F3272138C190E3205303902031D08329A
:1001E0002000F21672152C30AC000130AD000F3239
:1001F000B90A0E32B908031D083220002C082D045C
:10020000031D0532F21272110232B90301325E216E
:100210002000381C3B32381030083202F800310818
:10022000333BF804031D05322A082B040319381543
:1002300028322C30AA000130AB0038113008F80009
:100240003108F9003208FC003308FD00E721771C73
:100250000C321030FC070030FD3DE721771C0D32D9
:100260007C08B2007D08B3000C321030FC02003074
:10027000FD3BE72177180132F3333008B200310833
:10028000B3003208FC003308FD004721BC287C087D
:100290007002031D4F297D087102031908008B139A
:1002A0008B1BFD337C08F0007D08F1008B170800E4
:1002B000F21E1B321F32F21E0E321232F21E0132B9
:1002C00005323508B1003408B00008003708B10025
:1002D0003608B00008003508FD003408FC000800AE
:1002E0003708FD003608FC0008007D08B5007C08D2
:1002F000B40008007D08B7007C08B6000800FC01C7
:10030000FD0121001D1C8D299D18FE331C08FD00D8
:100310001B08FC009D14200008002100A0309E0056
:1003200001309D009D14200008002000721E08006E
:100330007212AE08031DFD332000F21272115E210D
:10034000BF21472100309600FF3097002500920121
:1003500091010830930020002C30AE000130AF0036
:100360002C30AA000130AB0038110800B830FC0076
:10037000B000B2000B30FD00B100B300080030083F
:10038000FC00B2003108FD00B300080010307D020F
:10039000031CD329031DE22968307C0203190800DD
:1003A0000318E229080007307D02031CDD29031D24
:1003B000080008307C02031808000830FC000730F1
:1003C000FD0008006830FC001030FD000800F70157
:1003D00079087D02031CF429031D080078087C02BB
:1003E000031CF429031D08007714080020005F3067
:1003F000FF0020308400850101222030FF00A03062
:1004000084008001840AFF0B012A080020000030CC
:10041000A6003430840085014E228000383004026A
:1004200003190800840AA60A0C2A20000030A6003E
:100430003430840085010008A700582238300402B7
:1004400003190800840AA60A1B2A2F302C2A2D30F3
:100450002C2A2B302C2A293084008501130000041B
:100460000319080001308002840A0030803B080034
:100470002E082F0408002C082D0408002A082B043D
:1004800008002808290408000530492A4130492A73
:100490001930F700F70B4A2A0800A60026082300A7
:1004A0009100151395131514130820000800A600D9
:1004B000260823009100200027082300930015132D
:1004C00095138B13151555309600AA309600951488
:0C04D0008B17151195186A2A20000800EF
:020000040001F9
:08000000010001000B000100EA
:0AE0000080000C00F0000A0002008E
:02000E00A42F1D
:02001000FF1ED1
:00000001FF
