:020000040000FA
:0600000083018A01B8280B
:080008008A012000911C582818
:100010009110850150254E254C254A253930512512
:100020003B30512521000C170D168D152000461070
:100030000C1D4614C6108D1EC6144616A60B0B3298
:100040002108A600A90803190632290F013201323E
:10005000A90321000C132000A70803190232A70BE3
:1000600010322208A7002A0803190B32AB08031D1F
:1000700003322A08AB000532AB032308A700210096
:100080000D122000A80803190232A80B1032240810
:10009000A8002C0803190B32AD08031D03322C08ED
:1000A000AD000532AD032508A80021008D11200008
:1000B0002000111B4C2C2000111D2B325014250048
:1000C000221E0232930123321318153220089107A1
:1000D0002108923D20000A30D01C0930501D093003
:1000E000250093000030A3007D30A4002008A30267
:1000F0002108A43B0C32003091077D30923D200056
:100100000A30D01C0830501D083025009300200014
:1001100011112000121C2B3250162500271E02320E
:100120009A0123321A181532250898072608993D96
:1001300020000A30D01E0930501F093025009A00D7
:100140000030A8007D30A9002508A8022608A93B98
:100150000C32003098077D30993D20000A30D01EC7
:100160000830501F083025009A00200012100900A6
:1001700021009517951295111514951415157230C7
:10018000990017309700230003308C0000308D0059
:1001900020000130980099130F254E309C007D30CF
:1001A0009B00210091142500221622001D14250019
:1001B0009301210011152500271622009D15250009
:1001C0009A0121001214200000308C0021006730B9
:1001D0008C00200000308D002100FE308D002000BA
:1001E0006430A100A200A4001430A300A500AA015D
:1001F000AC012E250B178B1738240130BC002200D0
:100200008C150C1620002500221627167F249D240D
:100210007F228E222000BC08031D2A3236083704B4
:10022000031D253246190232C61D2132461C0F32EB
:10023000C61C02326C231B32BE230230FC07003086
:10024000FD3DDF24E123C6170530B6001032C61C81
:100250000B32BE230230FC020030FD3BDF24E123E1
:10026000C6170530B6000332C61B3B25C6136922EC
:10027000BC08031D4121BC08031921239D22DF2254
:100280000A293D08031DBF2101303C02031D053230
:100290006430A9000130A100703202303C02031D1D
:1002A00013322908031D0800501DFD33501FFB3376
:1002B00032083304031DF73338083904031DF333C0
:1002C0006430B000B101593203303C02031D1532D5
:1002D00030083104031D08004A22D01D03320130CA
:1002E000BD004B320A30A100FF30A900F430B0004D
:1002F0000130B1000730BC00080004303C02031D8F
:1003000007322908031D08006430B000B1013532FE
:1003100005303C02031D093230083104031D08007A
:100320006430A9000130A100283206303C02031DD0
:1003300007322908031D08006430B000B1011D32E6
:1003400007303C02031D0B3230083104031D080046
:100350003D08031D08006430A100FF30A900BC0166
:10036000D01D0A32471C033222008C112000C71C0A
:10037000033222000C1220000800BC0A08000130E1
:100380003D02031D113213241C2464304807FC0075
:100390000301493DFD00DF247C08BE007D08BF004D
:1003A00050114711BD0A080002303D02031D0A32F8
:1003B0002124471D080064304802FC000301493B2A
:1003C000FD00E93303303D02031D0A322124471D9D
:1003D00008004808BE004908BF0050114711E23329
:1003E00004303D02031D10322124501D080021005D
:1003F0002B08031D063214302A0203180232200093
:10040000D13320004714CE3305303D02031D103296
:100410001C2464304C07FC0003014D3DFD00DF242B
:100420007C08C2007D08C3005013C711BD0A080034
:1004300006303D02031D0A322124C71D0800643026
:100440004C02FC0003014D3BFD00E93307303D0247
:10045000031D0A322124C71D08004C08C2004D08A4
:10046000C3005013C711E23308303D02031D1032A0
:100470002124501F080021002B08031D06321430D0
:100480002A02031802322000D1332000C714CE33D1
:10049000BD0108002000D01121002C142408FC000C
:1004A0002508FD002C102000E8307C0200307D3B48
:1004B0000318D015FD36FC0CFD36FC0CFD36FC0C8B
:1004C000FD36FC0CFD36FC0C3230A1007C08A90086
:1004D00008002000C61E0232882206324718023267
:1004E0007F22023201308022461F023297220632DA
:1004F000C71802328E22023201308F2208000030EB
:1005000020000339AA006430A2001430A3000800C0
:1005100020000130AA00A200A30008000030200043
:100520000339AC006430A4001430A500080020009A
:100530000130AC00A400A50008002000501C3E3291
:1005400050103E084002F8003F08413BF804031DEC
:1005500006324715320833040319501529322C305E
:10056000B2000130B300501120003E08F8003F08EF
:10057000F9004008FC004108FD000025771C0C3202
:100580004030FC070030FD3D0025771C0D327C0813
:10059000C0007D08C1000C324030FC020030FD3B41
:1005A000002577180132F3333E08C0003F08C10030
:1005B00020004008FC004108FD00732B08002000CB
:1005C000501E3E32501242084402F8004308453B98
:1005D000F804031D0632C7153808390403195017EB
:1005E00029322C30B8000130B900501320004208E5
:1005F000F8004308F9004408FC004508FD00002508
:10060000771C0C324030FC070030FD3D0025771C84
:100610000D327C08C4007D08C5000C324030FC025D
:100620000030FD3B002577180132F3334208C40047
:100630004308C50020004408FC004508FD00882B45
:1006400008002000461E080046128D1811320530A1
:100650005102031D0B322500A2162000C6164615B6
:10066000C6112C30B4000130B5001132D10A10325D
:10067000D108031D0A32200034083504031D073257
:100680002500A2122000C6120232D10301329D239E
:100690000D19113205305202031D0B322500A71629
:1006A00020004617C61546112C30BA000130BB0099
:1006B0001132D20A1032D208031D0A3220003A0841
:1006C0003B04031D07322500A71220004613023207
:1006D000D2030132042C0800B830FC000B30FD00BE
:1006E000AC23C613080025007C082002031D053238
:1006F0007D0821022000031908008B138B1BFD339A
:1007000025007C08A0007D08A1008B1720000800B0
:1007100025007C082502031D05327D0826022000E5
:10072000031908008B138B1BFD3325007C08A500E3
:100730007D08A6008B17200008002500A21A0632AB
:1007400020004908BF004808BE00080020004B08F0
:10075000BF004A08BE000800200046190332C6192F
:100760000732080020007D08BF007C08BE0008009A
:1007700020007D08C3007C08C2000800461903322F
:10078000C619103208002500A21A063220004908B6
:10079000FD004808FC00080020004B08FD004A0846
:1007A000FC0008002500A71A063220004D08FD00B5
:1007B0004C08FC00080020004F08FD004E08FC001B
:1007C000080046190332C619103208002500A21A83
:1007D000063220007D08C9007C08C80008002000FF
:1007E0007D08CB007C08CA0008002500A71A063245
:1007F00020007D08CD007C08CC00080020007D088A
:10080000CF007C08CE0008002500A71A0632200081
:100810004D08C3004C08C200080020004F08C30068
:100820004E08C20008002100AC142608A8002708C2
:10083000A900AC10200008002100AA01AB01200093
:1008400008002100AC1428082602FC002908273BD8
:10085000FD00FD1B0A327C082A027D082B3B031891
:1008600004327C08AA007D08AB00AC102000080010
:1008700021001117200011132100A0309E0001302B
:100880009D000000000000000000000000000000CB
:1008900000009D14200008002000111321001D19E4
:1008A00008321C08A1001B08A0002D1405309D0073
:1008B00007321C08A3001B08A200AD1401309D00E4
:1008C0000000000000000000000000000000000028
:1008D0009D1421002C1808322D1C06322008A4007B
:1008E0002108A5002D102E14AC180832AD1C0632BC
:1008F0002208A6002308A700AD10AE145B2825002F
:10090000221E19322212A2122000C6129D23CF24C9
:10091000732320006430160725009100200000306A
:10092000173D250092000830930020002C30B200C3
:100930000130B3005011200008002500271E193295
:100940002712A712200046130424D724882320004E
:10095000643016072500980020000030173D250060
:10096000990008309A0020002C30B8000130B900FE
:100970005013200008002000B830FC00BE00C0006A
:100980000B30FD00BF00C10008002000B830FC00A3
:10099000C200C4000B30FD00C300C50008002000E9
:1009A0003E08FC00C0003F08FD00C1000800200018
:1009B0004208FC00C4004308FD00C50008001030D8
:1009C0007D02031C0932031D163268307C020319B4
:1009D000080003181032080007307D02031C06329D
:1009E000031D080008307C02031808000830FC00D2
:1009F0000730FD0008006830FC001030FD000800E2
:100A0000F70179087D02031C0832031D08007808ED
:100A10007C02031C0232031D08007714080020002A
:100A20005F30FF0020308400850129255030FF0011
:100A3000A03084002925850A2025850A2025850ADD
:100A40005030FF002030840029255030FF00A030B6
:100A500084008001840AFF0BFC3308000030AE00E4
:100A60004830840085017A251A00AE0A513004020C
:100A7000031DF933080020000030AE004830840028
:100A800085011200AF008425AE0A51300402031D17
:100A9000F833080037300532353003323330013255
:100AA0003130840000308500130000040319080071
:100AB00001308002840A0301803B080020003608D0
:100AC00037040800200034083504080020003208EC
:100AD00033040800200030083104080005300332D8
:100AE000413001321930F70000000000F70BFC33F1
:100AF0000800AE002E08230091001513951315145D
:100B0000130820000800AE002E08230091002000EA
:100B10002F08230093001513951315158B138B1BAA
:100B2000FD3355309600AA30960095149518FE3383
:080B300015118B1720000800CD
:020000040001F9
:08000000010000000B000100EB
:10E0000010000E009800080010000E009800080094
:02E010002200EC
:02000E00A42F1D
:02001000FF1FD0
:00000001FF
