:020000040000FA
:0600000083018A019B2828
:080008008A012000911C3E2832
:1000100091108501BD23BB23B923B7233530BE23FF
:100020003730BE2321000C170D168D15200040100F
:100030000C1D4014C0108D1EC0144016A40B0B32B2
:100040002108A400A70803190632270F0132013244
:10005000A70321000C132000A50B06322208A500DF
:10006000C01E023221000D122000A60B063223080A
:10007000A600401F023221008D1120002000111D1A
:100080006C2849142500221E472893016A2813185A
:100090005E28200891072108923D20000A30C91CE3
:1000A0000930491D0930250093000030A3007D3040
:1000B000A4002008A3022108A43B6A28003091076D
:1000C0007D30923D20000A30C91C0830491D08309F
:1000D00025009300200011112000121C9A284916B7
:1000E0002500271E75289A0198281A188C2825089B
:1000F00098072608993D20000A30C91E0930491F7B
:10010000093025009A000030A8007D30A90025089C
:10011000A8022608A93B9828003098077D30993D11
:1001200020000A30C91E0830491F083025009A00F7
:100130002000111009002100951795129511151432
:10014000951415157230990017309700230001306F
:100150008C0020000130980099137C234E309C00C5
:100160007D309B00210091142500221622001D14D1
:1001700025009301210011152500271622009D1549
:1001800025009A0121001214200000308C0021006B
:10019000E7308C00200064006430A1000130A20030
:1001A00064009B2364000B178B1720000430B200FF
:1001B000DC220D21CE22CE2222008C150C1620002E
:1001C000C911FD08031D053241307C02031C0132B8
:1001D000C915FD36FC0CFD36FC0CFD36FC0C32302E
:1001E000A1007C08A70064002708031DFC3314212C
:1001F0000D21C91D053222008C110C122000053280
:100200000A30A100FF30A70004326430A100FF30A3
:10021000A700E42208231B211B326430A700013011
:10022000A1002708031DFD336430AC002C08031D1A
:10023000FD33640008002500A212A7122000C0129E
:1002400040132C30B000B6000130B100B7000800F8
:100250006400200032083304031D253240190232A5
:10026000C01D2132401C0F32C01C023228221B321A
:1002700079220230FC070030FD3D4C239C22C01740
:100280000530B2001032C01C0B3279220230FC0261
:100290000030FD3B4C239C22C0170530B2000332D6
:1002A000C01BA823C013DE21582103229B2128292B
:1002B0002000491C3F32491038083A02F80039083A
:1002C0003B3BF804031D06322E082F0425000319BA
:1002D00049152A322C30AE000130AF0025004911FB
:1002E00020003808F8003908F9003A08FC003B08FB
:1002F000FD006D23771C0C324030FC070030FD3DC3
:100300006D23771C0D327C08BA007D08BB000C32CF
:100310004030FC020030FD3B6D2377180132F3338F
:100320003808BA003908BB0020003A08FC003B0836
:10033000FD002F2A08002000491E3F3249123C08C8
:100340003E02F8003D083F3BF804031D0632340826
:1003500035042500031949172A322C30B400013026
:10036000B5002500491320003C08F8003D08F900BD
:100370003E08FC003F08FD006D23771C0C32403026
:10038000FC070030FD3D6D23771C0D327C08BE005C
:100390007D08BF000C324030FC020030FD3B6D2375
:1003A00077180132F3333C08BE003D08BF0020003F
:1003B0003E08FC003F08FD00442A0800401E22328F
:1003C00040128D180F3205304A02031D09322500F4
:1003D000A2162000C0162C30B0000130B10011323E
:1003E000CA0A1032CA08031D0A322000300831043C
:1003F000031D07322500A2122000C0120232CA03D8
:100400000132592A0800401E223240120D190F32C3
:1004100005304B02031D09322500A7162000C01627
:100420002C30B6000130B7001132CB0A1032CB08A5
:10043000031D0A32200036083704031D0732250049
:10044000A7122000C0120232CB030132BF2A0800DB
:10045000B830FC000B30FD006822C01308002500F6
:100460007C082002031D392A7D082102200003197F
:1004700008008B138B1BFD3325007C08A0007D0832
:10048000A1008B172000080025007C082502031D11
:100490004E2A7D0826022000031908008B138B1BAF
:1004A000FD3325007C08A5007D08A6008B172000E1
:1004B00008002500A21A063220004208B9004108AF
:1004C000B800080020004408B9004308B80008003C
:1004D00040190332C0190732080020007D08B90016
:1004E0007C08B800080020007D08BD007C08BC0026
:1004F000080040190332C019103208002500A21A62
:10050000063220004208FD004108FC0008002000DF
:100510004408FD004308FC0008002500A71A063225
:1005200020004608FD004508FC000800200048089F
:10053000FD004708FC00080040190332C0191032C2
:1005400008002500A21A063220007D08C2007C089F
:10055000C100080020007D08C4007C08C30008001A
:100560002500A71A063220007D08C6007C08C500B9
:10057000080020007D08C8007C08C700080025008E
:10058000A71A063220004608BD004508BC00080036
:1005900020004808BD004708BC000800FC01FD0120
:1005A00021001D1CDC2A9D18FE331C08FD001B08C1
:1005B000FC009D14200008002100A0309E000130A6
:1005C0009D009D14200008002000221E0800221219
:1005D000B208031DFD332500A2122000C0125922CB
:1005E0003E232F2200309600FF3097002500920115
:1005F00091010830930020002C30B2000130B3008C
:100600002C30AE000130AF00250049112000080059
:100610002000271E08002712B208031DFD33250005
:10062000A71220004013BF22452344220030960029
:10063000FF30970025009901980108309A002000AA
:100640002C30B2000130B3002C30B4000130B500C2
:100650002500491320000800B830FC00B800BA009B
:100660000B30FD00B900BB000800B830FC00BC0036
:10067000BE000B30FD00BD00BF0008003808FC00C4
:10068000BA003908FD00BB0008003C08FC00BE00B1
:100690003D08FD00BF00080010307D02031C592BEF
:1006A000031D682B68307C02031908000318682BAF
:1006B000080007307D02031C632B031D080008306F
:1006C0007C02031808000830FC000730FD00080019
:1006D0006830FC001030FD000800F70179087D0249
:1006E000031C7A2B031D080078087C02031C7A2B5C
:1006F000031D08007714080020005F30FF00203041
:100700008400850196235030FF00A030840096239A
:10071000850A8D23850A8D23850A5030FF002030FD
:10072000840096235030FF00A03084008001840AAA
:10073000FF0BFC3308000030AA0041308400850123
:10074000E7231A00AA0A4A300402031DF9330800FD
:1007500020000030AA004130840085011200AB0067
:10076000F123AA0A4A300402031DF833080033308B
:100770000532313003322F3001322D308400003009
:100780008500130000040319080001308002840A68
:100790000301803B080020003208330408002000D9
:1007A00030083104080020002E082F040800200023
:1007B0002C082D0408000530033241300132193075
:1007C000F70000000000F70BFC330800AA002A081D
:1007D0002300910015139513151413082000080029
:1007E000AA002A082300910020002B082300930070
:1007F0001513951315158B138B1BFD335530960070
:10080000AA30960095149518FE3315118B17200009
:020810000800DE
:020000040001F9
:08000000010000000B000100EB
:10E0000010000E009800080010000E009800080094
:02E0100002000C
:02000E00A42F1D
:02001000FF1FD0
:00000001FF
