:020000040000FA
:0600000083018A015F2864
:080008002000911C2F2891102B
:1000100085014A2248224622442221000C160C1552
:10002000200072100C1D7214F2100C1EF2147217C4
:10003000A30B0B322108A300A50803190632250FD4
:1000400001320132A50321000C122000A40B06325C
:100050002208A400721D023221000C112000200091
:10006000111D5E283814721E3828250093015C2863
:10007000250013185028700891077108923D200040
:100080000A30B81C0930381D0930250093000030B3
:10009000F5007D30F6007008F5027108F63B5C282B
:1000A000003091077D30923D20000A30B81C0830A6
:1000B000381D08302500930020001111090021008F
:1000C0009517951295111514951415157230990000
:1000D00017309700230001308C0020000130980079
:1000E000991315224E309C007D309B002100911405
:1000F0002000721622001D14250093012100111505
:10010000200002308C002100DD308C0020006400D3
:100110006430A1000130A2006400252264000B17A6
:100120008B1720000430AE00AC21C6209E219E21FA
:1001300022008C142000B811FD08031D0532413047
:100140007C02031C0132B815FD36FC0CFD36FC0C9C
:10015000FD36FC0C3230A1007C08A50064002508A7
:10016000031DFC33CD20C620B81D043222008C10A4
:10017000200005320A30A100FF30A50004326430AF
:10018000A100FF30A500B421D42016326430A500B0
:100190000130A1002508031DFD336430A8002808A4
:1001A000031DFD33640008002000F21272112C3090
:1001B000AC000130AD000800640020002E082F04C0
:1001C000031D2532721C1332F21C0632B830B00007
:1001D0000B30B100F2113B327A210230FC070030C3
:1001E000FD3DE5217721F2150530AE001032F21CFD
:1001F0000B327A210230FC020030FD3BE5217721F1
:10020000F2150530AE000332F2193422F211721FDA
:100210001E3272138C190E3205303902031D08325A
:100220002000F21672152C30AC000130AD000E32F9
:10023000B90A0D32B908031D073220002C082D041D
:10024000031D043272110232B90301327D212000F4
:10025000381C3B32381030083202F8003108333B8A
:10026000F804031D05322A082B0403193815283217
:100270002C30AA000130AB0038113008F8003108EA
:10028000F9003208FC003308FD000622771C0C320E
:100290004030FC070030FD3D0622771C0D327C0803
:1002A000B2007D08B3000C324030FC020030FD3B50
:1002B000062277180132F3333008B2003108B30058
:1002C0003208FC003308FD006621DC287C0870023F
:1002D000031D6E297D087102031908008B138B1B07
:1002E000FD337C08F0007D08F1008B170800F21E3A
:1002F0001B321F32F21E0E321232F21E0132053252
:100300003508B1003408B00008003708B1003608DD
:10031000B00008003508FD003408FC00080037086C
:10032000FD003608FC0008007D08B5007C08B4001C
:1003300008007D08B7007C08B6000800FC01FD013C
:1003400021001D1CAC299D18FE331C08FD001B0854
:10035000FC009D14200008002100A0309E00013008
:100360009D009D14200008002000721E08007212DB
:10037000AE08031DFD332000F21272117D21DE2133
:10038000662100309600FF30970025009201910110
:100390000830930020002C30AE000130AF002C302C
:1003A000AA000130AB0038110800B830FC00B000E2
:1003B000B2000B30FD00B100B30008003008FC00B3
:1003C000B2003108FD00B300080013307D02031CA9
:1003D000F229031D012A88307C0203190800031842
:1003E000012A080003307D02031CFC29031D0800BC
:1003F000E8307C0203180800E830FC000330FD0000
:1004000008008830FC001330FD000800F70179086F
:100410007D02031C132A031D080078087C02031CBC
:10042000132A031D08007714080020005F30FF0026
:1004300020308400850120222030FF00A03084007D
:100440008001840AFF0B202A080020000030A6004B
:100450003430840085016D22800038300402031995
:100460000800840AA60A2B2A20000030A600343097
:10047000840085010008A7007722383004020319A0
:100480000800840AA60A3A2A2F304B2A2D304B2A1C
:100490002B304B2A293084008501130000040319F6
:1004A000080001308002840A0030803B08002E08DA
:1004B0002F0408002C082D0408002A082B0408002B
:1004C0002808290408000530682A4130682A1930B4
:1004D000F700F70B692A0800A60026082300910000
:1004E000151395131514130820000800A6002608FC
:1004F0002300910020002708230093001513951373
:100500008B13151555309600AA30960095148B174D
:0A05100015119518892A2000080033
:020000040001F9
:08000000010002000B000100E9
:0AE0000088001300E800030002008E
:02000E00A42F1D
:02001000FF1ED1
:00000001FF
