:020000040000FA
:0600000083018A0158286B
:080008002000911C2828911032
:100010008501E621E421E221E02121000C160C15E6
:10002000200072100C1D7214F2100C1EF2147217C4
:10003000A30B04322108A30021000C122000A40B02
:1000400006322208A400721D023221000C11200089
:100050002000111D57283714721E312825009301E6
:100060005528250013184928700891077108923DFA
:1000700020000A30B71C0930371D093025009300D5
:100080000030F5007D30F6007008F5027108F63B8F
:100090005528003091077D30923D20000A30B71C72
:1000A0000830371D08302500930020001111090089
:1000B0002100951795129511151495141515723088
:1000C00099001730970023008C0120000130980020
:1000D0009913B1214E309C007D309B00210091147A
:1000E0002000721622001D14250093012100111515
:1000F000200000308C002100DC308C0020006400E7
:100100006430A1000130A2006400C12164000B171B
:100110008B1720000430AD005021640020002D0812
:100120002E04031D2532721C1332F21C0632B83025
:10013000AF000B30B000F2113C322C210230FC0732
:100140000030FD3D81212921F2150530AD0010322E
:10015000F21C0B322C210230FC020030FD3B8121CD
:100160002921F2150530AD000332F219D021F21128
:10017000721F1F3272138C190E3205303802031DA4
:1001800008322000F21672152C30AB000130AC00A2
:100190000F32B80A0E32B808031D083220002B08AF
:1001A0002C04031D0532F21272110232B80301321F
:1001B0002F212000371C3B3237102F083102F80066
:1001C0003008323BF804031D053229082A040319BC
:1001D000371528322C30A9000130AA0037112F081A
:1001E000F8003008F9003108FC003208FD00A221B7
:1001F000771C0C321030FC070030FD3DA221771C2B
:100200000D327C08B1007D08B2000C321030FC02C7
:100210000030FD3BA22177180132F3332F08B100E3
:100220003008B2003108FC003208FD0018218D288A
:100230007C087002031D20297D0871020319080043
:100240008B138B1BFD337C08F0007D08F1008B17AE
:100250000800F21E1B321F32F21E0E321232F21E44
:10026000013205323408B0003308AF000800360808
:10027000B0003508AF0008003408FD003308FC006A
:1002800008003608FD003508FC0008007D08B400B1
:100290007C08B30008007D08B6007C08B5000800A3
:1002A0002000721E08007212AD08031DFD332000ED
:1002B000F21272112F217A21182100309600FF309E
:1002C00097002500920191010830930020002C3006
:1002D000AD000130AE002C30A9000130AA0037116A
:1002E0000800B830FC00AF00B1000B30FD00B000DA
:1002F000B20008002F08FC00B1003008FD00B20079
:10030000080010307D02031C8E29031D9D296830D2
:100310007C020319080003189D29080007307D029C
:10032000031C9829031D080008307C0203180800EC
:100330000830FC000730FD0008006830FC00103079
:10034000FD000800F70179087D02031CAF29031D99
:10035000080078087C02031CAF29031D08007714ED
:10036000080020005F30FF00203084008501BC21A0
:100370002030FF00A03084008001840AFF0BBC29DC
:10038000080020000030A5003330840085010922D8
:1003900080003730040203190800840AA50AC7291F
:1003A00020000030A5003330840085010008A6003D
:1003B00013223730040203190800840AA50AD6293B
:1003C0002E30E7292C30E7292A30E729283084000D
:1003D0008501130000040319080001308002840A1B
:1003E0000030803B08002D082E0408002B082C0448
:1003F000080029082A0408002708280408000530F6
:10040000042A4130042A1930F700F70B052A0800A6
:10041000A500250823009100151395131514130842
:1004200020000800A50025082300910020002608D0
:1004300023009300151395138B1315155530960053
:10044000AA30960095148B1715119518252A2000AF
:020450000800A2
:020000040001F9
:08000000010000000A000200EB
:0AE0000080000C00F0000A0002008E
:02000E00A42F1D
:02001000FF1ED1
:00000001FF
